{
  "_format": "hh3-artifact-1",
  "contractName": "MyNFT",
  "sourceName": "contracts/MyNFT.sol",
  "abi": [
    {
      "inputs": [],
      "stateMutability": "nonpayable",
      "type": "constructor"
    },
    {
      "inputs": [
        {
          "internalType": "address",
          "name": "sender",
          "type": "address"
        },
        {
          "internalType": "uint256",
          "name": "tokenId",
          "type": "uint256"
        },
        {
          "internalType": "address",
          "name": "owner",
          "type": "address"
        }
      ],
      "name": "ERC721IncorrectOwner",
      "type": "error"
    },
    {
      "inputs": [
        {
          "internalType": "address",
          "name": "operator",
          "type": "address"
        },
        {
          "internalType": "uint256",
          "name": "tokenId",
          "type": "uint256"
        }
      ],
      "name": "ERC721InsufficientApproval",
      "type": "error"
    },
    {
      "inputs": [
        {
          "internalType": "address",
          "name": "approver",
          "type": "address"
        }
      ],
      "name": "ERC721InvalidApprover",
      "type": "error"
    },
    {
      "inputs": [
        {
          "internalType": "address",
          "name": "operator",
          "type": "address"
        }
      ],
      "name": "ERC721InvalidOperator",
      "type": "error"
    },
    {
      "inputs": [
        {
          "internalType": "address",
          "name": "owner",
          "type": "address"
        }
      ],
      "name": "ERC721InvalidOwner",
      "type": "error"
    },
    {
      "inputs": [
        {
          "internalType": "address",
          "name": "receiver",
          "type": "address"
        }
      ],
      "name": "ERC721InvalidReceiver",
      "type": "error"
    },
    {
      "inputs": [
        {
          "internalType": "address",
          "name": "sender",
          "type": "address"
        }
      ],
      "name": "ERC721InvalidSender",
      "type": "error"
    },
    {
      "inputs": [
        {
          "internalType": "uint256",
          "name": "tokenId",
          "type": "uint256"
        }
      ],
      "name": "ERC721NonexistentToken",
      "type": "error"
    },
    {
      "inputs": [
        {
          "internalType": "address",
          "name": "owner",
          "type": "address"
        }
      ],
      "name": "OwnableInvalidOwner",
      "type": "error"
    },
    {
      "inputs": [
        {
          "internalType": "address",
          "name": "account",
          "type": "address"
        }
      ],
      "name": "OwnableUnauthorizedAccount",
      "type": "error"
    },
    {
      "anonymous": false,
      "inputs": [
        {
          "indexed": true,
          "internalType": "address",
          "name": "owner",
          "type": "address"
        },
        {
          "indexed": true,
          "internalType": "address",
          "name": "approved",
          "type": "address"
        },
        {
          "indexed": true,
          "internalType": "uint256",
          "name": "tokenId",
          "type": "uint256"
        }
      ],
      "name": "Approval",
      "type": "event"
    },
    {
      "anonymous": false,
      "inputs": [
        {
          "indexed": true,
          "internalType": "address",
          "name": "owner",
          "type": "address"
        },
        {
          "indexed": true,
          "internalType": "address",
          "name": "operator",
          "type": "address"
        },
        {
          "indexed": false,
          "internalType": "bool",
          "name": "approved",
          "type": "bool"
        }
      ],
      "name": "ApprovalForAll",
      "type": "event"
    },
    {
      "anonymous": false,
      "inputs": [
        {
          "indexed": false,
          "internalType": "uint256",
          "name": "_fromTokenId",
          "type": "uint256"
        },
        {
          "indexed": false,
          "internalType": "uint256",
          "name": "_toTokenId",
          "type": "uint256"
        }
      ],
      "name": "BatchMetadataUpdate",
      "type": "event"
    },
    {
      "anonymous": false,
      "inputs": [
        {
          "indexed": false,
          "internalType": "uint256",
          "name": "_tokenId",
          "type": "uint256"
        }
      ],
      "name": "MetadataUpdate",
      "type": "event"
    },
    {
      "anonymous": false,
      "inputs": [
        {
          "indexed": true,
          "internalType": "address",
          "name": "previousOwner",
          "type": "address"
        },
        {
          "indexed": true,
          "internalType": "address",
          "name": "newOwner",
          "type": "address"
        }
      ],
      "name": "OwnershipTransferred",
      "type": "event"
    },
    {
      "anonymous": false,
      "inputs": [
        {
          "indexed": true,
          "internalType": "address",
          "name": "from",
          "type": "address"
        },
        {
          "indexed": true,
          "internalType": "address",
          "name": "to",
          "type": "address"
        },
        {
          "indexed": true,
          "internalType": "uint256",
          "name": "tokenId",
          "type": "uint256"
        }
      ],
      "name": "Transfer",
      "type": "event"
    },
    {
      "inputs": [
        {
          "internalType": "address",
          "name": "to",
          "type": "address"
        },
        {
          "internalType": "uint256",
          "name": "tokenId",
          "type": "uint256"
        }
      ],
      "name": "approve",
      "outputs": [],
      "stateMutability": "nonpayable",
      "type": "function"
    },
    {
      "inputs": [
        {
          "internalType": "address",
          "name": "owner",
          "type": "address"
        }
      ],
      "name": "balanceOf",
      "outputs": [
        {
          "internalType": "uint256",
          "name": "",
          "type": "uint256"
        }
      ],
      "stateMutability": "view",
      "type": "function"
    },
    {
      "inputs": [
        {
          "internalType": "uint256",
          "name": "tokenId",
          "type": "uint256"
        }
      ],
      "name": "getApproved",
      "outputs": [
        {
          "internalType": "address",
          "name": "",
          "type": "address"
        }
      ],
      "stateMutability": "view",
      "type": "function"
    },
    {
      "inputs": [
        {
          "internalType": "address",
          "name": "owner",
          "type": "address"
        },
        {
          "internalType": "address",
          "name": "operator",
          "type": "address"
        }
      ],
      "name": "isApprovedForAll",
      "outputs": [
        {
          "internalType": "bool",
          "name": "",
          "type": "bool"
        }
      ],
      "stateMutability": "view",
      "type": "function"
    },
    {
      "inputs": [
        {
          "internalType": "string",
          "name": "tokenURI",
          "type": "string"
        }
      ],
      "name": "mintNFT",
      "outputs": [
        {
          "internalType": "uint256",
          "name": "",
          "type": "uint256"
        }
      ],
      "stateMutability": "nonpayable",
      "type": "function"
    },
    {
      "inputs": [],
      "name": "name",
      "outputs": [
        {
          "internalType": "string",
          "name": "",
          "type": "string"
        }
      ],
      "stateMutability": "view",
      "type": "function"
    },
    {
      "inputs": [],
      "name": "owner",
      "outputs": [
        {
          "internalType": "address",
          "name": "",
          "type": "address"
        }
      ],
      "stateMutability": "view",
      "type": "function"
    },
    {
      "inputs": [
        {
          "internalType": "uint256",
          "name": "tokenId",
          "type": "uint256"
        }
      ],
      "name": "ownerOf",
      "outputs": [
        {
          "internalType": "address",
          "name": "",
          "type": "address"
        }
      ],
      "stateMutability": "view",
      "type": "function"
    },
    {
      "inputs": [],
      "name": "renounceOwnership",
      "outputs": [],
      "stateMutability": "nonpayable",
      "type": "function"
    },
    {
      "inputs": [
        {
          "internalType": "address",
          "name": "from",
          "type": "address"
        },
        {
          "internalType": "address",
          "name": "to",
          "type": "address"
        },
        {
          "internalType": "uint256",
          "name": "tokenId",
          "type": "uint256"
        }
      ],
      "name": "safeTransferFrom",
      "outputs": [],
      "stateMutability": "nonpayable",
      "type": "function"
    },
    {
      "inputs": [
        {
          "internalType": "address",
          "name": "from",
          "type": "address"
        },
        {
          "internalType": "address",
          "name": "to",
          "type": "address"
        },
        {
          "internalType": "uint256",
          "name": "tokenId",
          "type": "uint256"
        },
        {
          "internalType": "bytes",
          "name": "data",
          "type": "bytes"
        }
      ],
      "name": "safeTransferFrom",
      "outputs": [],
      "stateMutability": "nonpayable",
      "type": "function"
    },
    {
      "inputs": [
        {
          "internalType": "address",
          "name": "operator",
          "type": "address"
        },
        {
          "internalType": "bool",
          "name": "approved",
          "type": "bool"
        }
      ],
      "name": "setApprovalForAll",
      "outputs": [],
      "stateMutability": "nonpayable",
      "type": "function"
    },
    {
      "inputs": [
        {
          "internalType": "bytes4",
          "name": "interfaceId",
          "type": "bytes4"
        }
      ],
      "name": "supportsInterface",
      "outputs": [
        {
          "internalType": "bool",
          "name": "",
          "type": "bool"
        }
      ],
      "stateMutability": "view",
      "type": "function"
    },
    {
      "inputs": [],
      "name": "symbol",
      "outputs": [
        {
          "internalType": "string",
          "name": "",
          "type": "string"
        }
      ],
      "stateMutability": "view",
      "type": "function"
    },
    {
      "inputs": [
        {
          "internalType": "uint256",
          "name": "tokenId",
          "type": "uint256"
        }
      ],
      "name": "tokenURI",
      "outputs": [
        {
          "internalType": "string",
          "name": "",
          "type": "string"
        }
      ],
      "stateMutability": "view",
      "type": "function"
    },
    {
      "inputs": [],
      "name": "totalSupply",
      "outputs": [
        {
          "internalType": "uint256",
          "name": "",
          "type": "uint256"
        }
      ],
      "stateMutability": "view",
      "type": "function"
    },
    {
      "inputs": [
        {
          "internalType": "address",
          "name": "from",
          "type": "address"
        },
        {
          "internalType": "address",
          "name": "to",
          "type": "address"
        },
        {
          "internalType": "uint256",
          "name": "tokenId",
          "type": "uint256"
        }
      ],
      "name": "transferFrom",
      "outputs": [],
      "stateMutability": "nonpayable",
      "type": "function"
    },
    {
      "inputs": [
        {
          "internalType": "address",
          "name": "newOwner",
          "type": "address"
        }
      ],
      "name": "transferOwnership",
      "outputs": [],
      "stateMutability": "nonpayable",
      "type": "function"
    }
  ],
  "bytecode": "0x608060405234801561000f575f5ffd5b50336040518060400160405280600581526020017f4d794e46540000000000000000000000000000000000000000000000000000008152506040518060400160405280600481526020017f4d4e465400000000000000000000000000000000000000000000000000000000815250815f908161008b9190610423565b50806001908161009b9190610423565b5050505f73ffffffffffffffffffffffffffffffffffffffff168173ffffffffffffffffffffffffffffffffffffffff160361010e575f6040517f1e4fbdf70000000000000000000000000000000000000000000000000000000081526004016101059190610531565b60405180910390fd5b61011d8161012360201b60201c565b5061054a565b5f60075f9054906101000a900473ffffffffffffffffffffffffffffffffffffffff1690508160075f6101000a81548173ffffffffffffffffffffffffffffffffffffffff021916908373ffffffffffffffffffffffffffffffffffffffff1602179055508173ffffffffffffffffffffffffffffffffffffffff168173ffffffffffffffffffffffffffffffffffffffff167f8be0079c531659141344cd1fd0a4f28419497f9722a3daafe3b4186f6b6457e060405160405180910390a35050565b5f81519050919050565b7f4e487b71000000000000000000000000000000000000000000000000000000005f52604160045260245ffd5b7f4e487b71000000000000000000000000000000000000000000000000000000005f52602260045260245ffd5b5f600282049050600182168061026157607f821691505b6020821081036102745761027361021d565b5b50919050565b5f819050815f5260205f209050919050565b5f6020601f8301049050919050565b5f82821b905092915050565b5f600883026102d67fffffffffffffffffffffffffffffffffffffffffffffffffffffffffffffffff8261029b565b6102e0868361029b565b95508019841693508086168417925050509392505050565b5f819050919050565b5f819050919050565b5f61032461031f61031a846102f8565b610301565b6102f8565b9050919050565b5f819050919050565b61033d8361030a565b6103516103498261032b565b8484546102a7565b825550505050565b5f5f905090565b610368610359565b610373818484610334565b505050565b5b818110156103965761038b5f82610360565b600181019050610379565b5050565b601f8211156103db576103ac8161027a565b6103b58461028c565b810160208510156103c4578190505b6103d86103d08561028c565b830182610378565b50505b505050565b5f82821c905092915050565b5f6103fb5f19846008026103e0565b1980831691505092915050565b5f61041383836103ec565b9150826002028217905092915050565b61042c826101e6565b67ffffffffffffffff811115610445576104446101f0565b5b61044f825461024a565b61045a82828561039a565b5f60209050601f83116001811461048b575f8415610479578287015190505b6104838582610408565b8655506104ea565b601f1984166104998661027a565b5f5b828110156104c05784890151825560018201915060208501945060208101905061049b565b868310156104dd57848901516104d9601f8916826103ec565b8355505b6001600288020188555050505b505050505050565b5f73ffffffffffffffffffffffffffffffffffffffff82169050919050565b5f61051b826104f2565b9050919050565b61052b81610511565b82525050565b5f6020820190506105445f830184610522565b92915050565b61262e806105575f395ff3fe608060405234801561000f575f5ffd5b5060043610610114575f3560e01c8063715018a6116100a0578063b88d4fde1161006f578063b88d4fde146102ca578063c87b56dd146102e6578063e985e9c514610316578063f2fde38b14610346578063fb37e8831461036257610114565b8063715018a6146102685780638da5cb5b1461027257806395d89b4114610290578063a22cb465146102ae57610114565b806318160ddd116100e757806318160ddd146101b257806323b872dd146101d057806342842e0e146101ec5780636352211e1461020857806370a082311461023857610114565b806301ffc9a71461011857806306fdde0314610148578063081812fc14610166578063095ea7b314610196575b5f5ffd5b610132600480360381019061012d9190611b11565b610392565b60405161013f9190611b56565b60405180910390f35b6101506103f2565b60405161015d9190611bdf565b60405180910390f35b610180600480360381019061017b9190611c32565b610481565b60405161018d9190611c9c565b60405180910390f35b6101b060048036038101906101ab9190611cdf565b61049c565b005b6101ba6104b2565b6040516101c79190611d2c565b60405180910390f35b6101ea60048036038101906101e59190611d45565b6104bb565b005b61020660048036038101906102019190611d45565b6105ba565b005b610222600480360381019061021d9190611c32565b6105d9565b60405161022f9190611c9c565b60405180910390f35b610252600480360381019061024d9190611d95565b6105ea565b60405161025f9190611d2c565b60405180910390f35b6102706106a0565b005b61027a6106b3565b6040516102879190611c9c565b60405180910390f35b6102986106db565b6040516102a59190611bdf565b60405180910390f35b6102c860048036038101906102c39190611dea565b61076b565b005b6102e460048036038101906102df9190611f54565b610781565b005b61030060048036038101906102fb9190611c32565b6107a6565b60405161030d9190611bdf565b60405180910390f35b610330600480360381019061032b9190611fd4565b610822565b60405161033d9190611b56565b60405180910390f35b610360600480360381019061035b9190611d95565b6108b0565b005b61037c600480360381019061037791906120b0565b610934565b6040516103899190611d2c565b60405180910390f35b5f634906490660e01b7bffffffffffffffffffffffffffffffffffffffffffffffffffffffff1916827bffffffffffffffffffffffffffffffffffffffffffffffffffffffff191614806103eb57506103ea8261096f565b5b9050919050565b60605f805461040090612124565b80601f016020809104026020016040519081016040528092919081815260200182805461042c90612124565b80156104775780601f1061044e57610100808354040283529160200191610477565b820191905f5260205f20905b81548152906001019060200180831161045a57829003601f168201915b5050505050905090565b5f61048b82610a50565b5061049582610ad6565b9050919050565b6104ae82826104a9610b0f565b610b16565b5050565b5f600854905090565b5f73ffffffffffffffffffffffffffffffffffffffff168273ffffffffffffffffffffffffffffffffffffffff160361052b575f6040517f64a0ae920000000000000000000000000000000000000000000000000000000081526004016105229190611c9c565b60405180910390fd5b5f61053e8383610539610b0f565b610b28565b90508373ffffffffffffffffffffffffffffffffffffffff168173ffffffffffffffffffffffffffffffffffffffff16146105b4578382826040517f64283d7b0000000000000000000000000000000000000000000000000000000081526004016105ab93929190612154565b60405180910390fd5b50505050565b6105d483838360405180602001604052805f815250610781565b505050565b5f6105e382610a50565b9050919050565b5f5f73ffffffffffffffffffffffffffffffffffffffff168273ffffffffffffffffffffffffffffffffffffffff160361065b575f6040517f89c62b640000000000000000000000000000000000000000000000000000000081526004016106529190611c9c565b60405180910390fd5b60035f8373ffffffffffffffffffffffffffffffffffffffff1673ffffffffffffffffffffffffffffffffffffffff1681526020019081526020015f20549050919050565b6106a8610d33565b6106b15f610dba565b565b5f60075f9054906101000a900473ffffffffffffffffffffffffffffffffffffffff16905090565b6060600180546106ea90612124565b80601f016020809104026020016040519081016040528092919081815260200182805461071690612124565b80156107615780601f1061073857610100808354040283529160200191610761565b820191905f5260205f20905b81548152906001019060200180831161074457829003601f168201915b5050505050905090565b61077d610776610b0f565b8383610e7d565b5050565b61078c8484846104bb565b6107a0610797610b0f565b85858585611056565b50505050565b60606107b182610a50565b505f6107bb611202565b90505f6107c784611218565b90505f8251036107db57809250505061081d565b5f8151111561080f5781816040516020016107f79291906121c3565b6040516020818303038152906040529250505061081d565b610818846112b9565b925050505b919050565b5f60055f8473ffffffffffffffffffffffffffffffffffffffff1673ffffffffffffffffffffffffffffffffffffffff1681526020019081526020015f205f8373ffffffffffffffffffffffffffffffffffffffff1673ffffffffffffffffffffffffffffffffffffffff1681526020019081526020015f205f9054906101000a900460ff16905092915050565b6108b8610d33565b5f73ffffffffffffffffffffffffffffffffffffffff168173ffffffffffffffffffffffffffffffffffffffff1603610928575f6040517f1e4fbdf700000000000000000000000000000000000000000000000000000000815260040161091f9190611c9c565b60405180910390fd5b61093181610dba565b50565b5f60085f81548092919061094790612213565b91905055505f600854905061095c338261131f565b610966818461133c565b80915050919050565b5f7f80ac58cd000000000000000000000000000000000000000000000000000000007bffffffffffffffffffffffffffffffffffffffffffffffffffffffff1916827bffffffffffffffffffffffffffffffffffffffffffffffffffffffff19161480610a3957507f5b5e139f000000000000000000000000000000000000000000000000000000007bffffffffffffffffffffffffffffffffffffffffffffffffffffffff1916827bffffffffffffffffffffffffffffffffffffffffffffffffffffffff1916145b80610a495750610a4882611396565b5b9050919050565b5f5f610a5b836113ff565b90505f73ffffffffffffffffffffffffffffffffffffffff168173ffffffffffffffffffffffffffffffffffffffff1603610acd57826040517f7e273289000000000000000000000000000000000000000000000000000000008152600401610ac49190611d2c565b60405180910390fd5b80915050919050565b5f60045f8381526020019081526020015f205f9054906101000a900473ffffffffffffffffffffffffffffffffffffffff169050919050565b5f33905090565b610b238383836001611438565b505050565b5f5f610b33846113ff565b90505f73ffffffffffffffffffffffffffffffffffffffff168373ffffffffffffffffffffffffffffffffffffffff1614610b7457610b738184866115f7565b5b5f73ffffffffffffffffffffffffffffffffffffffff168173ffffffffffffffffffffffffffffffffffffffff1614610bff57610bb35f855f5f611438565b600160035f8373ffffffffffffffffffffffffffffffffffffffff1673ffffffffffffffffffffffffffffffffffffffff1681526020019081526020015f205f82825403925050819055505b5f73ffffffffffffffffffffffffffffffffffffffff168573ffffffffffffffffffffffffffffffffffffffff1614610c7e57600160035f8773ffffffffffffffffffffffffffffffffffffffff1673ffffffffffffffffffffffffffffffffffffffff1681526020019081526020015f205f82825401925050819055505b8460025f8681526020019081526020015f205f6101000a81548173ffffffffffffffffffffffffffffffffffffffff021916908373ffffffffffffffffffffffffffffffffffffffff160217905550838573ffffffffffffffffffffffffffffffffffffffff168273ffffffffffffffffffffffffffffffffffffffff167fddf252ad1be2c89b69c2b068fc378daa952ba7f163c4a11628f55a4df523b3ef60405160405180910390a4809150509392505050565b610d3b610b0f565b73ffffffffffffffffffffffffffffffffffffffff16610d596106b3565b73ffffffffffffffffffffffffffffffffffffffff1614610db857610d7c610b0f565b6040517f118cdaa7000000000000000000000000000000000000000000000000000000008152600401610daf9190611c9c565b60405180910390fd5b565b5f60075f9054906101000a900473ffffffffffffffffffffffffffffffffffffffff1690508160075f6101000a81548173ffffffffffffffffffffffffffffffffffffffff021916908373ffffffffffffffffffffffffffffffffffffffff1602179055508173ffffffffffffffffffffffffffffffffffffffff168173ffffffffffffffffffffffffffffffffffffffff167f8be0079c531659141344cd1fd0a4f28419497f9722a3daafe3b4186f6b6457e060405160405180910390a35050565b5f73ffffffffffffffffffffffffffffffffffffffff168373ffffffffffffffffffffffffffffffffffffffff1603610eed575f6040517fa9fbf51f000000000000000000000000000000000000000000000000000000008152600401610ee49190611c9c565b60405180910390fd5b5f73ffffffffffffffffffffffffffffffffffffffff168273ffffffffffffffffffffffffffffffffffffffff1603610f5d57816040517f5b08ba18000000000000000000000000000000000000000000000000000000008152600401610f549190611c9c565b60405180910390fd5b8060055f8573ffffffffffffffffffffffffffffffffffffffff1673ffffffffffffffffffffffffffffffffffffffff1681526020019081526020015f205f8473ffffffffffffffffffffffffffffffffffffffff1673ffffffffffffffffffffffffffffffffffffffff1681526020019081526020015f205f6101000a81548160ff0219169083151502179055508173ffffffffffffffffffffffffffffffffffffffff168373ffffffffffffffffffffffffffffffffffffffff167f17307eab39ab6107e8899845ad3d59bd9653f200f220920489ca2b5937696c31836040516110499190611b56565b60405180910390a3505050565b5f8373ffffffffffffffffffffffffffffffffffffffff163b11156111fb578273ffffffffffffffffffffffffffffffffffffffff1663150b7a02868685856040518563ffffffff1660e01b81526004016110b494939291906122ac565b6020604051808303815f875af19250505080156110ef57506040513d601f19601f820116820180604052508101906110ec919061230a565b60015b611170573d805f811461111d576040519150601f19603f3d011682016040523d82523d5f602084013e611122565b606091505b505f81510361116857836040517f64a0ae9200000000000000000000000000000000000000000000000000000000815260040161115f9190611c9c565b60405180910390fd5b805160208201fd5b63150b7a0260e01b7bffffffffffffffffffffffffffffffffffffffffffffffffffffffff1916817bffffffffffffffffffffffffffffffffffffffffffffffffffffffff1916146111f957836040517f64a0ae920000000000000000000000000000000000000000000000000000000081526004016111f09190611c9c565b60405180910390fd5b505b5050505050565b606060405180602001604052805f815250905090565b606060065f8381526020019081526020015f20805461123690612124565b80601f016020809104026020016040519081016040528092919081815260200182805461126290612124565b80156112ad5780601f10611284576101008083540402835291602001916112ad565b820191905f5260205f20905b81548152906001019060200180831161129057829003601f168201915b50505050509050919050565b60606112c482610a50565b505f6112ce611202565b90505f8151116112ec5760405180602001604052805f815250611317565b806112f6846116ba565b6040516020016113079291906121c3565b6040516020818303038152906040525b915050919050565b611338828260405180602001604052805f815250611784565b5050565b8060065f8481526020019081526020015f20908161135a91906124d5565b507ff8e1a15aba9398e019f0b49df1a4fde98ee17ae345cb5f6b5e2c27f5033e8ce78260405161138a9190611d2c565b60405180910390a15050565b5f7f01ffc9a7000000000000000000000000000000000000000000000000000000007bffffffffffffffffffffffffffffffffffffffffffffffffffffffff1916827bffffffffffffffffffffffffffffffffffffffffffffffffffffffff1916149050919050565b5f60025f8381526020019081526020015f205f9054906101000a900473ffffffffffffffffffffffffffffffffffffffff169050919050565b808061147057505f73ffffffffffffffffffffffffffffffffffffffff168273ffffffffffffffffffffffffffffffffffffffff1614155b156115a2575f61147f84610a50565b90505f73ffffffffffffffffffffffffffffffffffffffff168373ffffffffffffffffffffffffffffffffffffffff16141580156114e957508273ffffffffffffffffffffffffffffffffffffffff168173ffffffffffffffffffffffffffffffffffffffff1614155b80156114fc57506114fa8184610822565b155b1561153e57826040517fa9fbf51f0000000000000000000000000000000000000000000000000000000081526004016115359190611c9c565b60405180910390fd5b81156115a057838573ffffffffffffffffffffffffffffffffffffffff168273ffffffffffffffffffffffffffffffffffffffff167f8c5be1e5ebec7d5bd14f71427d1e84f3dd0314c0f7b2291e5b200ac8c7c3b92560405160405180910390a45b505b8360045f8581526020019081526020015f205f6101000a81548173ffffffffffffffffffffffffffffffffffffffff021916908373ffffffffffffffffffffffffffffffffffffffff16021790555050505050565b6116028383836117a7565b6116b5575f73ffffffffffffffffffffffffffffffffffffffff168373ffffffffffffffffffffffffffffffffffffffff160361167657806040517f7e27328900000000000000000000000000000000000000000000000000000000815260040161166d9190611d2c565b60405180910390fd5b81816040517f177e802f0000000000000000000000000000000000000000000000000000000081526004016116ac9291906125a4565b60405180910390fd5b505050565b60605f60016116c884611867565b0190505f8167ffffffffffffffff8111156116e6576116e5611e30565b5b6040519080825280601f01601f1916602001820160405280156117185781602001600182028036833780820191505090505b5090505f82602083010190505b600115611779578080600190039150507f3031323334353637383961626364656600000000000000000000000000000000600a86061a8153600a858161176e5761176d6125cb565b5b0494505f8503611725575b819350505050919050565b61178e83836119b8565b6117a2611799610b0f565b5f858585611056565b505050565b5f5f73ffffffffffffffffffffffffffffffffffffffff168373ffffffffffffffffffffffffffffffffffffffff161415801561185e57508273ffffffffffffffffffffffffffffffffffffffff168473ffffffffffffffffffffffffffffffffffffffff16148061181f575061181e8484610822565b5b8061185d57508273ffffffffffffffffffffffffffffffffffffffff1661184583610ad6565b73ffffffffffffffffffffffffffffffffffffffff16145b5b90509392505050565b5f5f5f90507a184f03e93ff9f4daa797ed6e38ed64bf6a1f01000000000000000083106118c3577a184f03e93ff9f4daa797ed6e38ed64bf6a1f01000000000000000083816118b9576118b86125cb565b5b0492506040810190505b6d04ee2d6d415b85acef81000000008310611900576d04ee2d6d415b85acef810000000083816118f6576118f56125cb565b5b0492506020810190505b662386f26fc10000831061192f57662386f26fc100008381611925576119246125cb565b5b0492506010810190505b6305f5e1008310611958576305f5e100838161194e5761194d6125cb565b5b0492506008810190505b612710831061197d576127108381611973576119726125cb565b5b0492506004810190505b606483106119a05760648381611996576119956125cb565b5b0492506002810190505b600a83106119af576001810190505b80915050919050565b5f73ffffffffffffffffffffffffffffffffffffffff168273ffffffffffffffffffffffffffffffffffffffff1603611a28575f6040517f64a0ae92000000000000000000000000000000000000000000000000000000008152600401611a1f9190611c9c565b60405180910390fd5b5f611a3483835f610b28565b90505f73ffffffffffffffffffffffffffffffffffffffff168173ffffffffffffffffffffffffffffffffffffffff1614611aa6575f6040517f73c6ac6e000000000000000000000000000000000000000000000000000000008152600401611a9d9190611c9c565b60405180910390fd5b505050565b5f604051905090565b5f5ffd5b5f5ffd5b5f7fffffffff0000000000000000000000000000000000000000000000000000000082169050919050565b611af081611abc565b8114611afa575f5ffd5b50565b5f81359050611b0b81611ae7565b92915050565b5f60208284031215611b2657611b25611ab4565b5b5f611b3384828501611afd565b91505092915050565b5f8115159050919050565b611b5081611b3c565b82525050565b5f602082019050611b695f830184611b47565b92915050565b5f81519050919050565b5f82825260208201905092915050565b8281835e5f83830152505050565b5f601f19601f8301169050919050565b5f611bb182611b6f565b611bbb8185611b79565b9350611bcb818560208601611b89565b611bd481611b97565b840191505092915050565b5f6020820190508181035f830152611bf78184611ba7565b905092915050565b5f819050919050565b611c1181611bff565b8114611c1b575f5ffd5b50565b5f81359050611c2c81611c08565b92915050565b5f60208284031215611c4757611c46611ab4565b5b5f611c5484828501611c1e565b91505092915050565b5f73ffffffffffffffffffffffffffffffffffffffff82169050919050565b5f611c8682611c5d565b9050919050565b611c9681611c7c565b82525050565b5f602082019050611caf5f830184611c8d565b92915050565b611cbe81611c7c565b8114611cc8575f5ffd5b50565b5f81359050611cd981611cb5565b92915050565b5f5f60408385031215611cf557611cf4611ab4565b5b5f611d0285828601611ccb565b9250506020611d1385828601611c1e565b9150509250929050565b611d2681611bff565b82525050565b5f602082019050611d3f5f830184611d1d565b92915050565b5f5f5f60608486031215611d5c57611d5b611ab4565b5b5f611d6986828701611ccb565b9350506020611d7a86828701611ccb565b9250506040611d8b86828701611c1e565b9150509250925092565b5f60208284031215611daa57611da9611ab4565b5b5f611db784828501611ccb565b91505092915050565b611dc981611b3c565b8114611dd3575f5ffd5b50565b5f81359050611de481611dc0565b92915050565b5f5f60408385031215611e0057611dff611ab4565b5b5f611e0d85828601611ccb565b9250506020611e1e85828601611dd6565b9150509250929050565b5f5ffd5b5f5ffd5b7f4e487b71000000000000000000000000000000000000000000000000000000005f52604160045260245ffd5b611e6682611b97565b810181811067ffffffffffffffff82111715611e8557611e84611e30565b5b80604052505050565b5f611e97611aab565b9050611ea38282611e5d565b919050565b5f67ffffffffffffffff821115611ec257611ec1611e30565b5b611ecb82611b97565b9050602081019050919050565b828183375f83830152505050565b5f611ef8611ef384611ea8565b611e8e565b905082815260208101848484011115611f1457611f13611e2c565b5b611f1f848285611ed8565b509392505050565b5f82601f830112611f3b57611f3a611e28565b5b8135611f4b848260208601611ee6565b91505092915050565b5f5f5f5f60808587031215611f6c57611f6b611ab4565b5b5f611f7987828801611ccb565b9450506020611f8a87828801611ccb565b9350506040611f9b87828801611c1e565b925050606085013567ffffffffffffffff811115611fbc57611fbb611ab8565b5b611fc887828801611f27565b91505092959194509250565b5f5f60408385031215611fea57611fe9611ab4565b5b5f611ff785828601611ccb565b925050602061200885828601611ccb565b9150509250929050565b5f67ffffffffffffffff82111561202c5761202b611e30565b5b61203582611b97565b9050602081019050919050565b5f61205461204f84612012565b611e8e565b9050828152602081018484840111156120705761206f611e2c565b5b61207b848285611ed8565b509392505050565b5f82601f83011261209757612096611e28565b5b81356120a7848260208601612042565b91505092915050565b5f602082840312156120c5576120c4611ab4565b5b5f82013567ffffffffffffffff8111156120e2576120e1611ab8565b5b6120ee84828501612083565b91505092915050565b7f4e487b71000000000000000000000000000000000000000000000000000000005f52602260045260245ffd5b5f600282049050600182168061213b57607f821691505b60208210810361214e5761214d6120f7565b5b50919050565b5f6060820190506121675f830186611c8d565b6121746020830185611d1d565b6121816040830184611c8d565b949350505050565b5f81905092915050565b5f61219d82611b6f565b6121a78185612189565b93506121b7818560208601611b89565b80840191505092915050565b5f6121ce8285612193565b91506121da8284612193565b91508190509392505050565b7f4e487b71000000000000000000000000000000000000000000000000000000005f52601160045260245ffd5b5f61221d82611bff565b91507fffffffffffffffffffffffffffffffffffffffffffffffffffffffffffffffff820361224f5761224e6121e6565b5b600182019050919050565b5f81519050919050565b5f82825260208201905092915050565b5f61227e8261225a565b6122888185612264565b9350612298818560208601611b89565b6122a181611b97565b840191505092915050565b5f6080820190506122bf5f830187611c8d565b6122cc6020830186611c8d565b6122d96040830185611d1d565b81810360608301526122eb8184612274565b905095945050505050565b5f8151905061230481611ae7565b92915050565b5f6020828403121561231f5761231e611ab4565b5b5f61232c848285016122f6565b91505092915050565b5f819050815f5260205f209050919050565b5f6020601f8301049050919050565b5f82821b905092915050565b5f600883026123917fffffffffffffffffffffffffffffffffffffffffffffffffffffffffffffffff82612356565b61239b8683612356565b95508019841693508086168417925050509392505050565b5f819050919050565b5f6123d66123d16123cc84611bff565b6123b3565b611bff565b9050919050565b5f819050919050565b6123ef836123bc565b6124036123fb826123dd565b848454612362565b825550505050565b5f5f905090565b61241a61240b565b6124258184846123e6565b505050565b5b818110156124485761243d5f82612412565b60018101905061242b565b5050565b601f82111561248d5761245e81612335565b61246784612347565b81016020851015612476578190505b61248a61248285612347565b83018261242a565b50505b505050565b5f82821c905092915050565b5f6124ad5f1984600802612492565b1980831691505092915050565b5f6124c5838361249e565b9150826002028217905092915050565b6124de82611b6f565b67ffffffffffffffff8111156124f7576124f6611e30565b5b6125018254612124565b61250c82828561244c565b5f60209050601f83116001811461253d575f841561252b578287015190505b61253585826124ba565b86555061259c565b601f19841661254b86612335565b5f5b828110156125725784890151825560018201915060208501945060208101905061254d565b8683101561258f578489015161258b601f89168261249e565b8355505b6001600288020188555050505b505050505050565b5f6040820190506125b75f830185611c8d565b6125c46020830184611d1d565b9392505050565b7f4e487b71000000000000000000000000000000000000000000000000000000005f52601260045260245ffdfea2646970667358221220a58e095f9d571c955a6d4a452afa9a1b6c2fd40b5096247afd7e338019ae700f64736f6c634300081c0033",
  "linkReferences": {},
  "deployedLinkReferences": {},
  "immutableReferences": {},
  "inputSourceName": "project/contracts/MyNFT.sol",
  "buildInfoId": "solc-0_8_28-3eaea1926765072198ab763e5c1f4c8bcc054937"
}